:100000000C942A000C943C000C943C000C943C0092
:100010000C943C000C943C000C943C000C943C0070
:100020000C943C000C943C000C9425010C943C0076
:100030000C943C000C943C000C943C000C943C0050
:100040000C943C000C943C000C943C000C943C0040
:100050000C943C0011241FBECFE5D8E0DEBFCDBF1D
:1000600020E0A0E6B0E001C01D92A736B207E1F79C
:100070000E943E000C946F010C940000CF93DF931C
:100080001F92CDB7DEB70E94DF000E94030161E03E
:1000900081E00E945600CE0101960E94F000698125
:1000A000683CC9F381E00E94C900F5CF8130F9F0C6
:1000B00030F08230A1F1833009F449C060C0613072
:1000C00091F018F0623039F05CC01ABA80B78460E1
:1000D00080BF80E0089580B78B7F80BF1ABA8FEF12
:1000E0008BBB80E008958FEF8ABB80E0089561307C
:1000F00091F018F0623039F046C017BA80B78460CA
:1001000080BF80E0089580B78B7F80BF17BA8FEFE4
:1001100088BB80E008958FEF87BB80E00895613051
:1001200091F018F0623039F030C014BA80B78460B2
:1001300080BF80E0089580B78B7F80BF14BA8FEFB7
:1001400085BB80E008958FEF84BB80E00895613027
:1001500091F018F0623039F01AC011BA80B784609B
:1001600080BF80E0089580B78B7F80BF11BA8FEF8A
:1001700082BB80E008958FEF81BB80E0089581E12C
:10018000089581E1089581E1089581E1089581E173
:100190000895813049F028F0823049F0833051F0E1
:1001A0000CC06BBB80E0089568BB80E0089565BB20
:1001B00080E0089562BB80E0089583E1089586B7EA
:1001C000846086BF80E280B981B1816081B981B1EC
:1001D000826081B981B1887F81B988EC82B9089544
:1001E000FC0196B7906896BF96B7906496BF96B795
:1001F0009F7E96BF96B7946096BF06B607FEFDCF6A
:1002000083B18083089583B78F7B83BF83B7886072
:1002100083BF8FB780688FBF89B7826089BF03B6FD
:1002200006FC0BC003B603FE0AC00FB607FE09C0EA
:1002300009B601FC08C081E4089581E4089581E4D1
:10024000089581E4089580E008951F920F920FB6FB
:100250000F9211242F933F934F935F936F937F934C
:100260008F939F93AF93BF93EF93FF93809163001E
:1002700090916400019690936400809363002091B4
:1002800063003091640080916500909166002817AA
:100290003907A1F48091600090916100892B71F081
:1002A000109264001092630089B78D7F89BF10920D
:1002B0006200E0916000F09161000995FF91EF917B
:1002C000BF91AF919F918F917F916F915F914F916E
:1002D0003F912F910F900FBE0F901F901895F8949B
:0202E000FFCF4E
:00000001FF
