S01300004932435F546573744170702E7372656333
S11300000C942A000C943C000C943C000C943C008E
S11300100C943C000C943C000C943C000C943C006C
S11300200C943C000C943C000C94A6000C943C00F2
S11300300C943C000C943C000C943C000C943C004C
S11300400C943C000C943C000C943C000C943C003C
S11300500C943C0011241FBECFE5D8E0DEBFCDBF19
S113006020E0A0E6B0E001C01D92A736B207E1F798
S11300700E943E000C94F0000C9400000E944C007E
S11300800E9484000E945B0060E084E60E946A0093
S113009080E50E947900FCCF86B7846086BF80E249
S11300A080B981B1816081B981B1826081B981B146
S11300B0887F81B9089586B7806886BF86B78062D5
S11300C086BF86B7846086BF06B607FEFDCF84E090
S11300D086BF089590E0880F991F862B83B986B751
S11300E0806886BF86B7846086BF06B607FEFDCFEC
S11300F0089583B986B7806886BF86B7846086BF53
S113010006B607FEFDCF089583B78F7B83BF83B701
S1130110886083BF8FB780688FBF89B7826089BFCB
S113012003B606FC0BC003B603FE0AC00FB607FEF7
S113013009C009B601FC08C081E4089581E408956A
S113014081E4089581E4089580E008951F920F9258
S11301500FB60F9211242F933F934F935F936F9396
S11301607F938F939F93AF93BF93EF93FF9380916C
S113017063009091640001969093640080936300FF
S11301802091630030916400809165009091660035
S113019028173907A1F48091600090916100892BA0
S11301A071F0109264001092630089B78D7F89BF4B
S11301B010926200E0916000F09161000995FF9156
S11301C0EF91BF91AF919F918F917F916F915F91CB
S11301D04F913F912F910F900FBE0F901F90189544
S10701E0F894FFCFBD
S9030000FC
